:020000040002F8
:10700000683C0120C5730200CD730200CF730200FB
:10701000D1730200D3730200D57302000000000098
:10702000000000000000000000000000D773020014
:10703000D973020000000000DB730200DD73020060
:1070400051760200DF730200957B0200DF730200BD
:10705000DF730200DF73020091750200BD7602004B
:107060004D7B0200657B02007D7B0200DF73020026
:10707000DF730200DF730200DF730200DF730200C0
:10708000DF730200A5760200DF730200DF730200E7
:10709000DF730200DF73020015790200DF73020064
:1070A000DF730200DF730200DF730200DF73020090
:1070B000DF730200DF730200000000000000000028
:1070C000DF730200DF730200DF730200DF73020070
:1070D000DF730200DF730200DF730200DF73020060
:1070E000DF730200DF730200DF73020000000000A4
:1070F00000000000DF73020000000000DF730200E8
:10710000000000000000000000000000000000007F
:10711000000000000000000000000000000000006F
:10712000000000000000000000000000000000005F
:10713000000000000000000000000000000000004F
:10714000000000000000000000000000000000003F
:10715000000000000000000000000000000000002F
:10716000000000000000000000000000000000001F
:10717000000000000000000000000000000000000F
:1071800000000000000000000000000000000000FF
:1071900000000000000000000000000000000000EF
:1071A00000000000000000000000000000000000DF
:1071B00000000000000000000000000000000000CF
:1071C00000000000000000000000000000000000BF
:1071D00000000000000000000000000000000000AF
:1071E000000000000000000000000000000000009F
:1071F000000000000000000000000000000000008F
:10720000DFF810D000F086F900480047BDD7020033
:10721000AFF30080683C012030B450E8012F93B2F6
:10722000C48923448489A34228BF1B1B0489A34229
:1072300002BFBFF32F8F002007E0C3EA020340E83C
:107240000134002CE9D14FF001000A6030BC7047D6
:1072500050E8012FC2EA024240E801210029F7D19B
:10726000704730B450E8022F1FFAA2F3C488A3423B
:1072700002BFBFF32F8F00200DE0C489234484890F
:10728000A34228BF1B1BC2EA034340E80234002C80
:10729000E8D14FF001000A6030BC704750E8022F7F
:1072A000C2EA224240E802210029F7D17047034692
:1072B00053E8022FD988B2EB324F4FF0000017BFCE
:1072C00092B241EA014142EA014104E05A68B2EB5C
:1072D000324F08BF012043E80212002AE8D170476C
:1072E00030B4044654E8000F0D4644E80053002B28
:1072F000F8D1156030BC704730B4044654E8000F34
:1073000040EA010544E80053002BF7D1156030BC7A
:10731000704730B4044654E8000F00EA010544E821
:107320000053002BF7D1156030BC704730B40446D1
:1073300054E8000F80EA010544E80053002BF7D120
:10734000156030BC704730B4044654E8000F00EBC1
:10735000010544E80053002BF7D1156030BC70479D
:1073600030B4044654E8000FA0EB010544E8005394
:10737000002BF7D1156030BC704770B404464FF055
:10738000000054E8006F0D68AE4207BF44E80023D8
:10739000012044E800630E60002B1CBF0020F0E7D2
:1073A00070BC704730B4044654E8000F88422CBFCC
:1073B000451A054644E80053002BF5D1156030BC52
:1073C000704700000648804706480047FEE7FEE792
:1073D000FEE7FEE7FEE7FEE7FEE7FEE7FEE7FEE785
:1073E0002D790200017202002DE9F05F05460020B0
:1073F00092469B4688460646814640241BE0284626
:1074000041464746224600F02FF853465A46C01AD6
:10741000914110D311461846224600F016F82D1A55
:1074200067EB01084F4622460120002100F00DF8CD
:1074300017EB00094E41201EA4F10104DFDC484691
:1074400031462A464346BDE8F09F202A04DB203A15
:1074500000FA02F1002070479140C2F1200320FAA7
:1074600003F3194390407047202A04DB203A21FAA5
:1074700002F00021704721FA02F3D040C2F120024D
:1074800091400843194670470048704770730300E5
:1074900040EA01039B0703D009E008C9121F08C096
:1074A000042AFAD203E011F8013B00F8013B521E16
:1074B000F9D27047D2B201E000F8012B491EFBD28D
:1074C00070470022F6E710B513460A4604461946EF
:1074D000FFF7F0FF204610BD421C10F8011B0029E9
:1074E000FBD1801A704730B504460020034600E007
:1074F0005B1C934203D2E05CCD5C401BF8D030BDF6
:10750000034611F8012B00F8012B002AF9D1184687
:1075100070470000064C074D06E0E06840F00103AC
:1075200094E8070098471034AC42F6D3FFF76CFE9E
:10753000908C0300B08C030070B58C1810F8015BC0
:1075400015F0070301D110F8013B2A1106D110F8FC
:10755000012B03E010F8016B01F8016B5B1EF9D100
:107560002B0705D40023521E0DD401F8013BFAE786
:1075700010F8013BCB1A921C03E013F8015B01F8F1
:10758000015B521EF9D5A142D8D3002070BD000086
:107590002DE9FC4700260020009001904FF48077F1
:1075A0000125002410E0384607F00CFD40B100BF73
:1075B00025480068284018B1384607F0F5FC2E43EE
:1075C0006D00381D87B2641C082CECD34FF4BE70DC
:1075D00007F0F8FC50B14FF4BE7007F0E5FC46F040
:1075E00000466A460221002007F010FCF0B210B3FA
:1075F000012500241DE005EA0600C0B100BF1348C4
:1076000050F82400C0F30520814600BF0F4850F811
:107610002400C0F301408246204602F07BFF8046F2
:10762000B8F1000F02D051464846C04700BF6D0078
:10763000641C082CDFD306F0004010B168460CF043
:1076400045F8BDE8FC870000046300401065004079
:1076500010B54FF4807006F05CFE80B14FF480707E
:1076600006F060FE012006F067FE0D48407930B953
:1076700001200B49487108460168002088474FF4F3
:10768000827006F046FE50B14FF4827006F04AFE5A
:10769000022006F051FE024801680120884710BD13
:1076A0000002012010B5034A1068034A1168884798
:1076B00010BD00007802012074020120FEB54FF4D5
:1076C000827008F0C3F9002837D04FF4827008F0B8
:1076D000C7F96C4890F82E0018B16A4890F82F004E
:1076E00058B300208DF80000664840680190654856
:1076F0000189ADF80810C06818B900206149087404
:1077000012E06048008B5F4948830846C0684860C3
:107710000846008B08810020C860084690F82E00BB
:1077200010B9002008F0B4F9564801686846884747
:107730000020544981F82F0000BF524890F82E00D5
:10774000002852D04FF4807008F080F900284CD007
:107750004FF4807008F084F94A48408B494991F809
:107760002D10884216DD4748408B464991F82D1070
:10777000401A444948830A4612890B465B8BD21A49
:107780000B465B6803EB42000A4692F82D1008F0A6
:1077900049F923E03B48408B3A4991F82D10884243
:1077A0000FD13848C06860B10120364981F82F00F8
:1077B000002048830A4692F82D10D06808F032F96C
:1077C0000CE03048408B2F4991F82D10884205D1AC
:1077D00001202C4981F82F00002048834FF482704B
:1077E00008F03EF9042008F053F94FF4887008F0CF
:1077F0002DF970B14FF4887008F032F9002021495A
:10780000087402208DF80000084601686846884721
:1078100000BF4FF48A7008F019F938B14FF48A703C
:1078200008F01EF90020174908742AE01548456938
:1078300024E0B5FA85F64FF00040F0408543B000F3
:1078400000F58C74204608F001F9B8B1204608F024
:1078500007F901208DF80000A4F58C70C0F3C70073
:107860008DF80400A4F58C70012121EA90018DF8B7
:107870000510044801686846884700BF002DD8D12C
:1078800000BFFEBD7011012010B500F08BF910BDD6
:107890002DE9F047074688461646C24607EB4701E2
:1078A0001B4800EBC109D9F8140020B1012811D000
:1078B000022826D11EE0484600F0ACF90546B54244
:1078C00001D2002405E0344632465146484600F0D5
:1078D000E8F918E0484600F09DF90546B54201D2A6
:1078E000284600E03046044622465146484600F00D
:1078F000D8F908E032465146484600F099F9044666
:1079000001E0002400BF00BF2046BDE8F087000072
:10791000F419012010B508F0F1FA10BD0148024930
:10792000086070470090D0034C03012010B506F0AA
:10793000D5F940B10020774908604FF08041C1F887
:1079400010017549086006F0EBF9002855D073481E
:107950000068734908607148001D0068091D0860CF
:107960006E4808300068091D08606C480C300068DB
:10797000091D0860694810300068091D08606748E3
:1079800014300068091D08606448183000686449B4
:107990002031086061481C300068091D08605F489C
:1079A00020300068091D08605C4824300068091D0B
:1079B00008605A4828300068091D086057482C3074
:1079C0000068091D0860554830300068544940314E
:1079D0000860524834300068091D08604F4838304C
:1079E0000068091D08604D483C300068091D0860AA
:1079F0004A4840300068091D086006F0B3F910B12C
:107A000048484949086006F0BFF810B1FB204749D3
:107A1000086006F0DBF838B1454801784548006851
:107A200061F303004349086006F0F2F818B14FF41F
:107A300000704149086006F00DF940B13F48006808
:107A400000F0010018B16FF001003C4908603C48AB
:107A5000006840F470003A49086000BF00BF00BFF2
:107A6000BFF34F8F00BF00BF00BF00BF00BF00BF0C
:107A7000BFF36F8F00BF00BF00BF00BF06F00CF95F
:107A800020B13048006824492031086000BF2D48EB
:107A90000838006800F0004028B92A48001F006834
:107AA00000F0004090B3012009F03AFB1220254974
:107AB0000839086009F03EFB12214FF01020C0F891
:107AC000041209F037FB002009F02AFB00BF00BFB9
:107AD00000BF00BF00BFBFF34F8F00BF00BF00BF9C
:107AE00017487C38006800F4E06017490843001D1F
:107AF00013497C39086000BF00BF00BFBFF34F8F40
:107B000000BF00BF00BF00BF00BFFDE7FFE7FFF7FA
:107B100005FF10BD0C0100403805004004040010B2
:107B200020C50040488103008C56004018F50040F5
:107B300058020010E40E004040960240000400404D
:107B400088ED00E0081200100000FA0510B50422CC
:107B50000249034805F049FA10BD0000A0110120B8
:107B60000080004010B504220249034805F03DFAA8
:107B700010BD0000AC1101200090004010B504229F
:107B80000249034805F031FA10BD0000B811012088
:107B900000A0004010B502490868804710BD0000F1
:107BA0000802012010B5124C02202061606111A072
:107BB000A0611349E1614FF4007121620021A162CB
:107BC0006162E1620BA0A0640E49E16410212165AD
:107BD0000021A1656165E1650BA1E01DFFF790FC47
:107BE0000AA12046FFF78CFC2020A07110BD0000E8
:107BF000DC1901205465726D696E616C0000000033
:107C0000541A0120541C0120525454005345474734
:107C10004552000010B501460A69CB689A4204D863
:107C20008C68641EE41AA01801E0D41A601E10BD0E
:107C30002DE9F0470446894617464FF0000AE568EB
:107C400000BFD4F81080A84503D9A8EB0500461E54
:107C500004E0A5EB0800401CA1680E1AA068401BB8
:107C6000B04201D9304601E0A068401B0646BE4242
:107C700001D2304600E0384606466168481932466F
:107C80004946FFF705FCB244B144BF1B3544A06828
:107C9000A84200D10025E560002FD2D15046BDE8B2
:107CA000F0872DE9F047044689461546E668A06846
:107CB000871BAF4208D9616888192A464946FFF7F1
:107CC000E7FB7019E06010E0B84661688819424629
:107CD0004946FFF7DDFBA5EB070809EB0701424624
:107CE0006068FFF7D5FBC4F80C80BDE8F0870000A2
:107CF0000FB4054B10B503A9044A029800F002F92D
:107D000010BC5DF814FB0000EFBB0200E002012094
:107D100002E008C8121F08C1002AFAD17047704754
:107D2000002001E001C1121F002AFBD170470000B2
:107D30000146202908DA012088400A4A104008B18B
:107D4000012070470020FCE7402909DAA1F120005A
:107D5000012202FA00F008B10120F2E70020F0E76A
:107D60000120EEE7FC06FFBD00BFEFF310810846DF
:107D700072B67047F8B505460E46C6B9694628463C
:107D80000AF0B2FC044643F202018C4208D000BF64
:107D9000274627B100BF384600F0FEFC00BF00BFF9
:107DA0009DF80000C0F3400000B1F8BD00BF002105
:107DB00028460AF0ABFC0446002C5CD0112C5AD0AB
:107DC0000D2C21D12D492E4A891AC908022242EAD6
:107DD00001402A462B4907F089FB1321284676DF0C
:107DE0000446002C47D0204608F076F90746234980
:107DF000234A891AC908022242EA01402B463A4620
:107E000021A107F07FFB36E00B2C0BD11B491C4A4C
:107E1000891AC908022242EA01402A46284907F085
:107E200065FB28E043F2020084420BD11349144A57
:107E3000891AC908022242EA01402A46214907F06C
:107E400055FB18E0204608F047F907460B490C4A55
:107E5000891AC908012242EA01402B463A461AA172
:107E600007F050FB00BF274627B100BF384600F09F
:107E700093FC00BF00BF00BF97E70000F88C030031
:107E8000C08C0300807A030073645F626C655F6777
:107E900061705F646973636F6E6E65637428292017
:107EA00072657475726E6564202573206F6E206331
:107EB0006F6E6E5F68616E646C652025642E0000D5
:107EC000407B0300F47A0300417373657274696E3A
:107ED000672E20706D5F636F6E6E5F736563757282
:107EE0006528292072657475726E6564202573207B
:107EF0006F6E20636F6E6E5F68616E646C652025C7
:107F0000642E00002DE9FF4F8DB00F460546002678
:107F100006E025280BD0DDE90F1290476D1C761C7A
:107F200028780028F5D111B03046BDE8F08F002444
:107F3000A246A1460122E94900E0044315F8013FA9
:107F4000203B02FA03F00842F7D128782A2810D003
:107F50006FF02F022878A0F13001092914D80AEB1C
:107F60008A0102EB410144F0020400EB010A6D1C9E
:107F7000F0E701CF5FEA000A03D544F40054CAF1E8
:107F8000000A44F002046D1C28782E2817D115F839
:107F9000010F44F004042A280ED06FF02F02287835
:107FA000A0F1300109290AD809EB890102EB41014E
:107FB00000EB01096D1CF2E757F8049B6D1C287853
:107FC0006C280FD006DC4C2817D068280DD06A2802
:107FD00014D104E0742810D07A280FD10DE044F4B5
:107FE00000140AE044F4801401E044F44014697879
:107FF000814202D104F580146D1C6D1C28786E2816
:108000001ED00CDC632830D004DC00288BD058282C
:1080100011D19FE0642867D069280CD164E07328EF
:108020002DD004DC6F2872D0702804D194E075281C
:108030006ED078286DD0DDE90F129047761C4BE1A9
:10804000C4F30250022806D0032809D0042801CF27
:1080500009D0066040E101CFF117C0E900613BE1C2
:1080600001CF068038E1067036E117F8040B8DF871
:10807000000000208DF80100EB46012003E057F8D6
:1080800004BB4FF0FF3061074FF0000102D40DE058
:1080900008F10101884649450FDA8045F8DB1BF8F5
:1080A00008100029F4D108E008F101018846814256
:1080B000FADB1BF808100029F6D1DDE90F23AAEB43
:1080C00008008146214600F031F9304400EB0806F3
:1080D00004E0DDE90F121BF8010B9047B8F101082D
:1080E000F7D221464846F2E00A21C4F302524FF08B
:1080F000000B0891022A04D001CFC117032A09D02E
:108100000AE0FF1D27F00707F7E8020108E02CE06E
:108110001EE01FE000B2C117042A01D140B2C1170E
:10812000021E71F1000206DA0023D0EB030063EBBC
:1081300001012D2202E0220504D52B228DF82420F6
:10814000012203E0E20701D02022F7E7904653E046
:108150000A210BE0102109E010214FF0000B44F040
:1081600004044FF00809089103E008214FF0000BC8
:108170000891C4F30252022A04D001CF0021032A3D
:1081800006D006E0FF1D27F00707F7E8020103E02D
:1081900080B2042A00D1C0B24FF0000822072BD5CC
:1081A0002A78702A07D0DDF820C08CF0100C5CEA29
:1081B0000B0C05D00EE040228DF82420012208E0AF
:1081C00050EA010306D030238DF824308DF82520A5
:1081D00002229046089B83F0080353EA0B030BD15D
:1081E00050EA010201D1620706D530228DF8242021
:1081F0004FF00108A9F101092A78582A04D038A2C1
:108200000B9208AA0A920BE03AA2F9E75B46089A99
:10821000FFF7EAF80B9B9B5C0A9A521E0A921370B6
:1082200050EA0102F2D10A98ADEB000000F1200BF8
:10823000600702D524F4803401E04FF00109D945EC
:1082400002DDA9EB0B0000E0002000EB0B01414434
:108250000890AAEB010AE00306D4DDE90F232146CA
:10826000504600F063F806444FF0000908E009A901
:1082700011F80900DDE90F12904709F10109761C98
:10828000C145F4DBE0030CD5DDE90F232146504660
:1082900000F04CF8064404E0DDE90F12302090476E
:1082A000761C0899481E08900029F5DC08E00A9819
:1082B0000A990078491C0A91DDE90F129047761C53
:1082C000BBF10001ABF1010BF1DC21465046DDE9C9
:1082D0000F2300F019F806446D1C21E6092801005F
:1082E000303132333435363738396162636465662C
:1082F00000000000303132333435363738394142EE
:1083000043444546000000002DE9F04104460025A5
:108310001E461746880404D405E039462020B0479D
:108320006D1C641EF9D52846BDE8F0812DE9F041A9
:10833000044600251E469046C80301D5302700E0BC
:108340002027880404D505E041463846B0476D1C17
:10835000641EF9D52846BDE8F08170B505460C4687
:1083600005B10CB9002070BD287840082178B0EB29
:10837000510F01D00020F6E70622611C681CFFF7B0
:10838000B2F808B90120EEE70020ECE7014601F061
:10839000030008B9012070470020FCE7024650683E
:1083A0000068401E084008B9012070470020FCE723
:1083B0000246002104E0505C08B101207047491CCE
:1083C0000629F8D30020F9E710B50346D86888429B
:1083D00006D88818401E1C69A04201D8012010BD93
:1083E0000020FCE710B504466CB10848C068A04204
:1083F00009D806480069A04205D3204604F0CBFE08
:1084000008B1012010BD0020FCE70000500301204E
:1084100070B504460D4604F22740FFF7C9FF064633
:10842000012D06D0022D0DD0032D11D0042D19D110
:1084300013E0A07928B194F8240010B90EB10120FE
:1084400070BD00BFE07910B10EB10220F8E700BFA7
:10845000207A08B10320F3E700BF607A08B1042056
:10846000EEE700BF0020EBE70146481C052290FB29
:10847000F2F302FB1300C0B27047014691F82420CA
:10848000012A01D1EE2000E01F20704710B5012223
:108490000221002001F0AAFC044600BF1CB1072CF9
:1084A00001D0204610BD00BF07220221012001F0AB
:1084B0009DFC044600BF1CB1072C01D02046F1E70B
:1084C00000BF0A220021084601F090FC044600BFCC
:1084D0001CB1072C01D02046E4E700BF0020E1E7F3
:1084E00030B5ABB0AC216846FEF7EBFF02208DF84B
:1084F000000001208DF8020006208DF80300012104
:10850000ADF84C100F49149101218DF87C104FF4F7
:1085100096712291002123910B48299069460B48BE
:1085200000F0AFFD044600BF254625B100BF284638
:1085300000F032F900BF00BF0121044800F09EFDA9
:108540002BB030BD3A00012045110300B0030120DB
:1085500070B50446012C02D102F078FB0EE0032135
:10856000074800F055FE054600BF2E4626B100BF65
:10857000304600F011F900BF00BF00BF70BD000021
:10858000B003012070B58CB004460D46164600209D
:1085900005E0C0F10F01615C0DF80010401C1028CF
:1085A000F7D30D2104A8FEF78CFF002005E02A5C1C
:1085B000C0F10F0304A9CA54401C0328F7D368462E
:1085C00046DF002005E0C0F10F0208A9895C3154A4
:1085D000401C0328F7D30CB070BD10B50446022030
:1085E00001F0A6FA10BD000010B50446024801785B
:1085F000204600F093FF10BDD001012010B50024EB
:1086000007E00749096811F83400012107F05EFE10
:10861000641C044800788442F3D3002010BD00009D
:10862000180201201C0201202DE9F84306460D46E0
:1086300017460A2F02D20720BDE8F88307F08EFF05
:1086400038B907F01FFF044600BF204600B1F3E72A
:1086500000BF1848066018480570184807602021B8
:108660001748FEF72EFF0021164A1160516015E0F1
:1086700006EBC50814480068009098F802008DF8D1
:10868000010098F80000114A694607F075FE04469B
:1086900000BF204600B1CFE700BF00BF281EA5F1F4
:1086A0000101CDB2E4D10A4A00210A4800F0BCF829
:1086B000C2E70000180201201C0201202002012054
:1086C000C411012048020120B46F03004DC4020010
:1086D000E9AC0200B06F030010B572B600BF06F03F
:1086E000E9FF00BF00BF06F069FD0028FBD100BF15
:1086F00000BF1E491E4A891AC908012242EA0140E8
:108700001CA106F0E9FE00BF1D48006800F0010052
:1087100000B100BE00BF1549154A891AC9080222D6
:1087200042EA014017A106F0D7FE00BF00BF00BF1C
:1087300000BF00BFBFF34F8F00BF00BF00BF104896
:10874000E438006800F4E06012490843001D0C4959
:10875000E439086000BF00BF00BFBFF34F8F00BF08
:1087600000BF00BF00BF00BFFDE70000808D030019
:10877000C08C0300466174616C206572726F720078
:10878000F0ED00E053797374656D20726573657464
:10879000000000000000FA053EB5044600200090ED
:1087A0000190029002946A46002144F20100FFF712
:1087B00093FF3EBD70B504460D46204603F00BF90D
:1087C00028B12946204603F0F5F8002070BD0520A9
:1087D000FCE7034609B90E20704712B1501E104045
:1087E00008B10920F8E71960501E988000209860B1
:1087F000D86000BFF0E770B504460D46204603F090
:10880000EAF8A188884205D82946204603F0F1F805
:10881000002070BD0420FCE710B5024802F010FBF8
:1088200010BD00005002012030B503460C460AB9C5
:10883000072030BD19684FF0FF358D60CD604A616B
:10884000012C01D1012000E0002008610020F0E7A8
:1088500038B513480068009008235822114912487F
:10886000006805F0ACFA04460CB1204638BD0F4A4A
:1088700069460F4802F0EAFA04460CB12046F5E7D3
:1088800001210B4802F088FB01230A4A19460848D7
:1088900002F0A8FA0120084908702046E6E7000027
:1088A000C86F0300E4110120B86F0300E340030028
:1088B00050020120FFFF7F005C0201202DE9F843F8
:1088C00006460D469046344600200090684600F06B
:1088D000EBF84FF0FF33D4E9021059405840014300
:1088E00008D103F095FD401941F10001C4E90201EE
:1088F000012700E000279DF8000000F0DBF817B921
:108900000020BDE8F883C4F81880206900B1256113
:10891000214600200DF0E6F9F3E7F8B504462546B8
:1089200000200090684600F0BFF84FF0FF33D5E913
:10893000021059405840014301D1002604E04FF095
:10894000FF31A960E96001269DF8000000F0B2F84F
:108950000EB90020F8BD294601200DF0C3F9F9E752
:108960002DE9F04188B004460E46174698462B483C
:1089700007601EB9072008B0BDE8F081B08882B258
:1089800027483168FFF725FF054600BF284600B19C
:10899000F1E700BFB08982B22248B168FFF719FF42
:1089A000054600BF284600B1E5E700BF20221E496A
:1089B0006846FEF76DFD60690690207C08B10120D5
:1089C00000E000208DF814008DF81C80607C08B158
:1089D0000E2000E000208DF81500E0680290A068ED
:1089E00003902068019060680090104A6946104822
:1089F00005F0F8FC054600BF284600B1BBE700BF04
:108A000000200C4908702068401C28B101220A4946
:108A1000074805F02DFDAEE70020ACE7D8020120A5
:108A20000414012014140120F0710300855E03007A
:108A3000C4020120DE020120DD0201202DE9F04107
:108A4000054629461448FFF7D6FE064606BB134CDA
:108A5000002720781249085C20B1201D08F050FB47
:108A6000074608E020780E49085C20B904F10C00A4
:108A700008F0EEF9074600BF57B90A490648FFF764
:108A800099FE28B901220749044805F013FD06465E
:108A90003046BDE8F081000014140120C40201201A
:108AA000FC010120DC02012010B5044620460BF039
:108AB00065FE10BD70B5044625460E488068B0B10D
:108AC000ADB9FFF751F906460A4800680A4908603F
:108AD000084840684FF0E021C1F804010020054932
:108AE00088601EB900BF62B600BF00BF00BF00BFF4
:108AF00070BD00004C12012000E100E0F8B5054611
:108B00000C4617462088001DB84201D90C20F8BD3C
:108B1000684679DF064600BF304600B1F7E700BF80
:108B20000320218868542088401C20801920218837
:108B300068542088401C208020884119BDF800001E
:108B40000DF0C0FB2188084420800020DFE770B5CD
:108B500005460C462068401C28B1206806F0E2F962
:108B6000206806F01EF96068401C18B1002160689A
:108B700006F0FDF82868A169C0F8241500BF617DE2
:108B8000227D286841EA0203C0F86C3500BFD4E9B1
:108B90000012286807F0FCFA207D012814D1A06893
:108BA000401C18B10021A06806F0E1F8E068401C04
:108BB00028B1E06806F0B6F9E06806F0F2F8D4E90A
:108BC0000221286807F0CCFA70BD70B505460C4646
:108BD0002068401C28B1206806F0B1F9206806F032
:108BE000ECF86068401C18B10021606806F0CCF811
:108BF0002868A169C0F8241500BF617D227D28681E
:108C000041EA0203C0F86C3500BFD4E900122868BD
:108C100007F0F8FA207D012814D1A068401C18B193
:108C20000021A06806F0B0F8E068401C28B1E068B8
:108C300006F085F9E06806F0C0F8D4E9022128685A
:108C400007F0C1FA70BD70B504460D46204604F029
:108C500039FC70BD0146480C400408B9012070473A
:108C60000020FCE710B50446637903F00302217984
:108C7000208804F0DFFB10BD10B50446207918B938
:108C8000204600F007F803E02046FFF7EBFF00BFA7
:108C900000BF10BD2DE9FE4307463E884FF0000897
:108CA000002259480178304600F04EFC7879C0F334
:108CB000800028B90021384608F046FFBDE8FE8351
:108CC00006F5807188B201AB0122072109F05CF83A
:108CD0000546C5B1284607F0FFF981464B494C4A85
:108CE000891AC908012242EA014033464A464949E5
:108CF00006F008FC294630460CF064F8002138469E
:108D000008F022FFDAE7304603F016FF04464FF67C
:108D1000FF718C421BD1029803F05EFE04464FF6B1
:108D2000FF70844213D02146304603F0E3FE304604
:108D3000FFF75AFC58B930460BF0D8FF3046FFF722
:108D400053FC20B90021384608F0FEFEB6E74FF686
:108D5000FF7084421FD109F02DFA04464FF6FF70D0
:108D6000844212D129492A4A891AC908012242EAB1
:108D7000014029A106F0B0FB042130460CF022F896
:108D80000021384608F0E0FE98E72146304603F01F
:108D9000B1FE4FF0010806F5807188B22246072126
:108DA00009F07AF8054625B90121384608F0CCFECD
:108DB00028E0862D07D130460BF0CAFF0121384646
:108DC00008F0C2FE1EE0284607F086F981460F49EA
:108DD0000F4A891AC908012242EA014033464A462D
:108DE0001A49009406F09EFB294630460BF0EAFF34
:108DF0000021384608F0A8FEB8F1000F02D0204646
:108E000003F082FE00BF59E7CD010120008D030071
:108E1000C08C030058810300436F756C64206E6F33
:108E20007420616C6C6F63617465206E657720706F
:108E30006565725F696420666F7220696E636F6D2D
:108E4000696E6720626F6E642E00000074820300FA
:108E5000002114E00C48D0F81024012308E000BFE2
:108E6000D0680079884201D1002303E0D06802680D
:108E7000002AF4D100BF0BB108467047491C0A29EB
:108E8000E8DB4FF0FF30F8E7BC1501202DE9FC418D
:108E9000054688461646002437880020308095F81D
:108EA0002D0058B13A463146404600F071FB044669
:108EB00000BF204608B1BDE8FC8100BFA87850B1D2
:108EC0003A4631464046FFF719FE044600BF2046A9
:108ED00000B1F0E700BFE87860B1E97848B23B46FE
:108EE0003246414602F0DAFD044600BF204600B19A
:108EF000E1E700BF686868B1696891F900003B4626
:108F0000324641460CF08FFF044600BF204600B1B8
:108F1000D1E700BF288900280EDD43460622022142
:108F200005F10800CDE900670DF0D3FA044600BF53
:108F3000204600B1BFE700BF288A00280EDD434667
:108F40000722032105F11000CDE900670DF0C1FAF9
:108F5000044600BF204600B1ADE700BF288B0028C3
:108F60000EDD43461522142105F11800CDE90067F6
:108F70000DF0AFFA044600BF204600B19BE700BFEA
:108F8000286A58B13B4632464146286A01F0B0FC97
:108F9000044600BF204600B18DE700BF686A58B1A3
:108FA0003B4632464146686A04F056FC044600BF20
:108FB000204600B17FE700BF95F82C0000280BDDAC
:108FC0003B463246414628460CF0B0F8044600BF06
:108FD000204600B16FE700BF287858B13B463246C3
:108FE0004146284604F027FD044600BF204600B154
:108FF00061E700BF20465EE7F8B504460E46154619
:10900000002000902B466A463146204600F008F8C2
:1090100007460FB90020F8BDBDF800002044FAE76C
:10902000F0B504460D461E4604B10AB90020F0BD55
:10903000002103E0605C401C084481B2481CA84247
:1090400006DA10888842F5DC481C205CB042F1D179
:10905000A94201DB0020EAE7881C87B2605C10B1FE
:10906000605C401E00E0002083B213B1F818A842F3
:1090700001DD0020DBE717801846D8E780F83010C4
:10908000704770B504460D4605B10CB90E2070BD91
:1090900005F1780001F0D5FB08B90720F7E70020BB
:1090A000A0702C2205F17801201DFEF7F1F90020B7
:1090B00084F83000D5F8A4006063D5F8A800A06358
:1090C0004FF6FF70A4F8240404F58260C4F820046D
:1090D000002140F22C40C4F82614A4F82A140155AB
:1090E000207810B9FF2084F8540004F15500C4F82A
:1090F00010042046FFF7C1F940F21441085304F26E
:10910000144204F155012846FFF7C0FE064600BF91
:10911000304600B1BBE700BF04F231204FF4836159
:1091200008512046FFF7A9F9A4F81C044FF4836006
:10913000015904F21C4205F13C00FFF7A7FE064668
:1091400000BF304600B1A2E700BF01215120015508
:10915000208B81B248200153012084F83C0000217B
:109160002164502001556169616404F13C020021D1
:1091700004F1540072DF064600BF304600B186E7B6
:1091800000BF01202070304681E770B504460D46CF
:109190002E462088102804D0112807D026280FD169
:1091A00009E02146304608F07FF80AE021463046C3
:1091B00008F049F905E02146304608F082FA00E05F
:1091C00000BF00BF70BD70B5044694F8540074DF52
:1091D000012084F82E04002084F83004002150205F
:1091E00001550621204602F074FC054600BF2846C2
:1091F00000B170BD00BFA178204600F009F8054617
:1092000025B1A06B10B12846A16B88470020F0E77C
:1092100070B504460E46207808B9082070BDA670C7
:10922000002140F22C40C4F82614A4F82A14015559
:10923000A07910B1A078012809D0E07910B1A07808
:10924000012804D0E07970B1A07802280BD1606BBE
:1092500030B1012084F82D040820616B884702E0BA
:10926000002084F82D0431462046FFF7D1F8A07085
:10927000606BA0B1A078032802D0A07804280ED19A
:10928000607960B194F82E0448B9002084F8300465
:10929000012084F82F040720616B884702E000203A
:1092A00084F82F04182104F13C00FEF70AF901208C
:1092B00084F83C0004F12C0009F056F920B194F830
:1092C0002C105120015502E001215120015594F844
:1092D000240060B104F1280009F046F920B194F8A7
:1092E00028105220015502E0012152200155002191
:1092F00050200155A078052824D2DFE800F01F0394
:109300000A11180004F13C0120460BF0ABFF0546A2
:1093100019E004F13C0120460BF08CFF054612E0F9
:1093200004F13C0120460BF0AFFF05460BE004F1D1
:109330003C0120460BF0D6FF054604E0002084F8EF
:10934000310000E000BF00BFA07898B104F13C02FA
:1093500004F15400D4F8201472DF05460DB12846FC
:109360005CE794F8301094F8540073DF05460DB1B3
:10937000284653E7606B18B194F83100616B884759
:1093800000204BE72DE9F041044600BF14B90E2040
:10939000BDE8F08100BF1C2221461C48FEF778F88A
:1093A0001B481A490860206860B120687ADF0546CA
:1093B0000DB12846ECE7164821680A680260496842
:1093C000416005E012487BDF05460DB12846DFE726
:1093D000002617E006EB86000E4901EB800700BF70
:1093E0004FF6FF70388000BF0B4800EB46107860E6
:1093F0000A4A0021381DFFF717FA05460DB1032070
:10940000C6E7761C002EE5D00020C1E7240D012020
:10941000C8000120100D0120F00C0120E1630300C1
:1094200010B50446204600F0A5F820B121460348B7
:1094300004F067FD10BD0020FCE70000500D012086
:1094400070B504460D46164620460DF013F808B9CF
:10945000002070BD034951F824003246294602F02D
:10946000ADFBF6E75C0D012010B50446204600F088
:1094700081F820B12146034804F043FD10BD0020CF
:10948000FCE70000580D012010B50446204600F00E
:1094900071F820B12146034804F033FD10BD0020CF
:1094A000FCE70000540D012070B50446002520465D
:1094B00000F060F850B12146054804F022FD064650
:1094C0000EB1022000E00120054600BF284670BD15
:1094D0004C0D012070B504460025204600F04AF8E6
:1094E00050B12146054804F00CFD06460EB102209D
:1094F00000E00120054600BF284670BD480D012050
:1095000010B51821044804F0CCFC0446182C00D1F6
:1095100010BDE0B2FCE70000400D012070B505462B
:109520000C4620460CF0A6FF50B1284600F022F869
:1095300030B1044901EB8400294604F0E2FC70BD1F
:109540000020FCE75C0D012070B505460C46164670
:1095500020460CF08FFF50B1284600F00BF830B1D8
:10956000034901EB84003246294602F088FA70BDB7
:109570005C0D012010B50446142C01DB002010BD49
:109580002146024804F0BDFCF9E70000440D01202B
:109590002DE9FC4105460C46174620880930B842A3
:1095A00002D90C20BDE8FC8168466DDF064600BF8D
:1095B000304600B1F6E700BF0820218868542088B3
:1095C000401C20801B20218868542088401C20805B
:1095D00020882844DDF801100160BDF80510818065
:1095E0002088801D20809DF80000400818B90020C8
:1095F0002188685402E00120218868542088401C9A
:1096000020800020CEE70000F8B505460F46002474
:10961000288821283FD004DC102812D0112866D1D8
:1096200004E03B2847D0562861D152E03149324A04
:10963000891AC908032242EA014030A105F04CFF13
:1096400056E02C492C4A891AC908032242EA0140F3
:109650002EA105F041FF072000F0F6FB044600BFF5
:10966000264626B100BF3046FFF796F800BF00BF80
:10967000A8882949088008460188284804F0E2FDA6
:10968000044600BF264626B100BF3046FFF784F8E7
:1096900000BF00BF2CE000200090A88869468FDF43
:1096A000044600BF264626B100BF3046FFF774F8D7
:1096B00000BF00BF1CE0A888132176DF044600BF6E
:1096C000264626B100BF3046FFF766F800BF00BF50
:1096D0000EE0A888132176DF044600BF264626B197
:1096E00000BF3046FFF758F800BF00BF00E000BFE2
:1096F00000BFF8BD808D0300C08C03004469736314
:109700006F6E6E65637465642E000000436F6E6E4D
:1097100065637465642E000038000120A4030120F5
:1097200070B505460E462888102802D011282CD185
:1097300015E01748006860B901F0C4F9044600BF9D
:1097400034B11448006818B12046124909688847A6
:1097500000BF0F480068401C0D49086016E00C4827
:109760000068401E0A4908600846006860B9FEF7B4
:109770008DFE044600BF34B10648006818B120468B
:1097800004490968884700BF00E000BF00BF70BD02
:10979000C4000120C000012070B504460D46208899
:1097A000102806D0112808D012280ED0502810D129
:1097B00007E0204607F040FD0CE0204607F020FEC1
:1097C00008E0204607F0AEFF04E0204607F01CFD4D
:1097D00000E000BF00BF70BD2DE9F04104460F4618
:1097E000A6882088102806D0112817D019283DD027
:1097F0001A2848D116E00AF0CFFB30460AF040FAAA
:1098000020B900BF0420FEF7C7FF06E0E07B022876
:1098100003D131461D4804F083FB34E030460AF0A2
:10982000DFFB30E0207A0509042D01DB012000E098
:1098300000200246314615480C3002F020F9032D75
:1098400001DB012000E00020024631460F480830CD
:1098500002F015F9022D01DB012000E00020024694
:1098600031460A48001D02F00AF90CE0207A48B996
:10987000607AC0F3C0052A46314604480C3002F035
:10988000FEF800BF00BF00BFBDE8F0814C0D012015
:1098900070B504460D4600BF0A48007800B970BD97
:1098A00000BF204603F0F4FB00B1F8E7204602F0C9
:1098B000FDFF20460BF0CAFD204602F089FB00BFE9
:1098C000EDE700000401012070B5AEB004460E467D
:1098D000306860627068E061B068A062464B0FCB90
:1098E00021AD0FC504F1200121A862DF054600BFAC
:1098F000284608B12EB070BD00BF02208DF8B6001A
:109900000020ADF8B40022462DA90120A8DF0546AD
:1099100000BF284600B1EDE700BF202125A8FDF7D4
:10992000D0FD7A2102A8FDF7CCFD33481030006845
:1099300001900120ADF8940094F820008DF8960075
:109940007E20ADF89A00ADF8980001A827909DF808
:10995000A10020F00200801C8DF8A1009DF8A1005C
:1099600020F0100010308DF8A1009DF8A10020F02B
:10997000080008308DF8A10000208DF8A800012013
:109980008DF8A5008DF8A700208804F1120225A902
:1099900000F00EFE05460DB12846ABE7202125A8B4
:1099A000FDF78FFD0220ADF8940094F820008DF8AB
:1099B00096000120ADF89A00ADF8980000200090C4
:1099C0009DF8A10020F00200801C8DF8A1009DF8F8
:1099D000A10020F00400001D8DF8A100CDF89CD05E
:1099E00001208DF8A5008DF8A6002088A21C25A9CD
:1099F00000F0DEFD7EE70000D872030070B504467B
:109A00000D462E462088102808D0112807D050284F
:109A10000AD12146304607F0B1FE06E005E02146B6
:109A2000304607F006FD00E000BF00BF70BD70B516
:109A300086B006460C4615467E2001900020029016
:109A400003900490059001208DF80A00608AADF81B
:109A50000800059501A8049002A93046AEDF06B0C3
:109A600070BD70B5044620460CF026FC054605F096
:109A7000010070BD38B506F0FFF9044600BF254669
:109A800025B100BF2846FEF787FE00BF00BF0020BB
:109A900000906946012006F00DF8044600BF2546F7
:109AA00025B100BF2846FEF777FE00BF00BF68461D
:109AB00006F0D0F8044600BF254625B100BF284671
:109AC000FEF76AFE00BF00BF38BD00000146014836
:109AD000405C70472D6D030070B504460549085D74
:109AE00005F006FA08B1012000E00020054685F0E7
:109AF000010070BD2D6D030010B5002405E0044980
:109B0000085D032105F026F9641C042CF7D310BD71
:109B10002D6D030010B5044604F0010008B100F0FB
:109B200051F804F0020008B1FFF7E6FF10BD000095
:109B3000F8B505460B48405D0090684605F080F991
:109B40000446D4F80465012000998840B043C4F865
:109B500008050120009988403040C4F80C0500BF7A
:109B6000F8BD00002A6D030010B504460249085DE7
:109B7000012105F0F1F910BD2A6D030010B504466E
:109B80000249085D002105F0E7F910BD2A6D0300C8
:109B9000F8B504460A48005D0090684605F050F9A3
:109BA000064600BFD6F804050099C84000F0010041
:109BB00008B1012000E00020054685F00100F8BD55
:109BC0002A6D03007CB500240CE00948055D0020E7
:109BD00000900346012211460190284605F052F8F4
:109BE00000BF641C032CF0D300F004F87CBD00001F
:109BF0002A6D030010B5002403E02046FFF7B4FFF0
:109C0000641C032CF9D310BD10B5002403E02046DA
:109C1000FFF7B4FF641C032CF9D310BD02464FF0CC
:109C2000FF30002106E0054B5B5C934201D1084602
:109C300002E0491C0429F6D300BF70472D6D0300D4
:109C400070B505460C4600260648056014B120464E
:109C50000BF060FE0448006810B9FEF717FC0646DA
:109C6000304670BDC0000120C400012010B50020A6
:109C700000F014FB044600BF1CB1062C01D02046A6
:109C800010BD00BF012000F009FB044600BF1CB15D
:109C9000062C01D02046F3E700BF0020F0E70000CB
:109CA0002DE9F04106460F464FF0000800243046EB
:109CB000FFF7B4FF0446042C3ED20FB3012F02D0AD
:109CC000022F38D130E004EB4400214911F8008024
:109CD00004EB44000844407850B11E4A4FF48041E0
:109CE0001D480068FEF7EAFD05460DB919480670E3
:109CF00004EB4400164908448078184908551AE0D6
:109D000015480068FEF709FE1448005D04EB4401A5
:109D10000F4A11448978884205D104EB440011466A
:109D2000084490F8028006E004EB44000849084427
:109D300090F8018000BF00BFB8F1000F06D00848BE
:109D4000006818B14046064909688847BDE8F081B7
:109D5000E20C0120B80001203C6D0300B900012095
:109D60009000012010B50446042C03D22046FFF7D2
:109D7000B3FE10BD0020FCE770B50546042D06D0EB
:109D8000072D15D00A2D29D10BF039FB27E013211F
:109D90001448008876DF0446082C08D000BF264609
:109DA00026B100BF3046FEF7F7FC00BF00BF16E04B
:109DB0000C4800884FF6FF7188420ED10A48FFF721
:109DC00002FA0446082C08D000BF264626B100BF80
:109DD0003046FEF7E1FC00BF00BF00E000BF00BF5F
:109DE00070BD000038000120B003012030B50346EB
:109DF0000020042B23D2012A07D1012903D103F12A
:109E00000E04E4B200E00024224679B1012902D018
:109E1000022911D104E003EB43040A4D2A550DE059
:109E200003EB4304074D2C44627007E003EB43044B
:109E3000044D2C44A27001E0072000BF00E0072081
:109E400030BD0000E20C012070B504460025054835
:109E5000007800F0010018B1204600F05BF80546DC
:109E6000284670BD440001202DE9F04105460F460B
:109E700000241F4805601F48076005F0020000B37A
:109E8000002606E0012211463046FFF7AFFF0446E8
:109E9000761C042E01D2002CF4D034B940F23332B7
:109EA00004211548FEF7C0FB044614B9FEF7A6FBD3
:109EB00004462CB9114A00211148FEF7B5FC0446AE
:109EC00000BF05F0010080B10120FFF723FE2CB98F
:109ED0000C4A00210C48FEF7A7FC04462CB90B4A9B
:109EE00001210B48FEF7A0FC04462046BDE8F081A6
:109EF0004400012090000120406D030005A40200F1
:109F00003C6D0300E5D20200346D0300DB850200E6
:109F1000386D03002DE9F047044600260025DA4895
:109F2000007820B10020D849087003F0C7F9182C38
:109F30007ED2DFE804F00C16174A7EB2F6F4F3F294
:109F4000F1F0EFEEEDECEBEAE9E8E7E6E5E403F04B
:109F5000B5F9CE480068FEF7E0FC0646CC48047030
:109F60008DE100BF0020FFF713FE58B10020FFF77E
:109F7000FBFD022C02D14FF4E16001E04FF47A6066
:109F8000054609E00020FFF7F9FD022C01D1C820A9
:109F900001E04FF4C8700546BD4804704FF400401E
:109FA000A5FB00104FF47A73CF1840F100015A005E
:109FB00000233846FDF718FA814600224946B34887
:109FC0000068FEF77BFC064659E10020FFF7E0FD44
:109FD00058B10020FFF7C8FD032C02D14FF44870A0
:109FE00001E04FF47A60054609E00020FFF7C6FD66
:109FF000032C01D1C82001E04FF4C8700546A448E5
:10A0000004704FF40040A5FB00104FF47A728F18D3
:10A0100040F10001520000233846FDF7E5F9814682
:10A020000022494699480068FEF748FC064626E1AA
:10A0300024E10020FFF7ACFD58B10020FFF794FDAC
:10A04000042C02D14FF47A6001E04FF47A600546A7
:10A050000AE00020FFF792FD042C02D14FF4C870F3
:10A0600001E04FF4C8700546894804704FF4004081
:10A07000A5FB00104FF47A73CF1840F100015A008D
:10A0800000233846FDF7B0F98146002249467F4853
:10A090000068FEF713FC0646F1E00020FFF778FDAC
:10A0A00050B10020FFF760FD052C01D1C82001E070
:10A0B0004FF47A60054609E00020FFF75FFD052CAC
:10A0C00001D1C82001E04FF4C87005467048047003
:10A0D0004FF40040A5FB00204FF47A73D71840F1ED
:10A0E00000015A0000233846FDF77EF98146002220
:10A0F000494666480068FEF7E1FB0646BFE0B8E067
:10A10000B6E0AAE0A1E098E092E05FE05DE05BE00D
:10A1100059E057E051E042E033E024E015E00EE082
:10A12000FFE70020FFF704FD59480470002240F2C9
:10A13000666156480068FEF7C1FB06469FE00020B6
:10A14000FFF71CFD5248047099E001204E49087049
:10A15000FFF7EEFC002240F266614C480068FEF713
:10A16000ADFB06468BE0012047490870FFF7E0FC95
:10A1700000224FF4005145480068FEF79FFB064659
:10A180007DE0012040490870FFF7D2FC002240F238
:10A1900066613E480068FEF791FB06466FE00120CD
:10A1A00039490870FFF7C4FC00224FF400513748CA
:10A1B0000068FEF783FB064661E0FFF725FD3448A3
:10A1C00004705CE000BF00BF00BF00BF3148006802
:10A1D000FEF7A3FB0646C4F1110515B30EBB012D16
:10A1E00018D9A8B2C82148434FF4004180FB0110A0
:10A1F0004FF47A728F1840F1000152000023384664
:10A20000FDF7F2F881460022494622480068FEF731
:10A2100055FB06460220FFF7B1FC01201E490870DD
:10A2200005E00220FFF7A0FC00201B49087026E093
:10A2300003F044F81648047021E003F03FF80020D2
:10A24000FFF79CFC1248047019E003F037F8012076
:10A25000FFF794FC0E48047011E003F02FF8002083
:10A26000FFF78CFC0120FFF789FC0948047006E029
:10A2700000BFFFF7C9FC0648047000E000BF00BF44
:10A280003046BDE8F087000041000120346D030036
:10A2900040000120386D03004800012010B504463D
:10A2A000012120460CF0A8F910BD00002DE9FC4763
:10A2B00004460D461646A71C4FF0010800200190E9
:10A2C00001A8FEF7F1FB3048406828602E4840683E
:10A2D0002D498968411A2D480068401CA0EB0109EE
:10A2E00015E001212A4803F03FFE03F001FA8246FF
:10A2F0005146274803F038FE2348406822498968C0
:10A30000411A22480068401CA0EB010900BF4F45DC
:10A31000E7D8B8F1000F30D00021009176B1009954
:10A3200021F00301491C0091009921F00401091D4D
:10A330000091009964F3891100910DE0009921F0DA
:10A340000301891C0091009921F00401091D00916D
:10A35000009964F39F5100910B4949680B4A1268B8
:10A360001140094A0C3202EB810000990160064954
:10A37000496839440C3A516000BF9DF80400FEF76B
:10A3800099FB4046BDE8FC87BC1501200403012071
:10A39000D819012070B504460D460A2D03D10D21B0
:10A3A0002046FFF7F7FFA168481CA06020684554CD
:10A3B000D4E90110884202D3204604F0B2F870BDFF
:10A3C0000448806803494968884201D101207047E8
:10A3D0000020FCE7BC1501200246002108E0074BE5
:10A3E0001B6803EBC1000378934200D17047491CFE
:10A3F000034800788142F2DB0020F7E718020120D1
:10A400001C02012010B5044620780221FFF748FC09
:10A4100010BD0000F8B5054612490320FFF724FDE2
:10A42000044600BF264626B100BF3046FEF7B4F909
:10A4300000BF00BF69460020FFF702FC044600BFD2
:10A44000264626B100BF3046FEF7A6F900BF00BF82
:10A450009DF80000022801D1012000E000202870B2
:10A46000F8BD0000799D02007CB50446204602F04C
:10A4700063FB054600236A46092107F0E3FD052832
:10A4800005D10122024801782046FFF75DF87CBD26
:10A49000E00001207CB504460E460020019042F603
:10A4A000A620ADF8040001208DF8060007480068DA
:10A4B00000906A4601A92046A0DF05462DB9012279
:10A4C000034801782046FFF73FF87CBDA46D0300E8
:10A4D000E100012001468879012809D10879012885
:10A4E00006D1488842F60212904201D101207047FD
:10A4F0000020FCE74FF0FF31054A42F82010082801
:10A5000004DBFF23A0F108016032535470470000C0
:10A51000B41001200146024850F8210070470000A5
:10A52000B41001202DE9F04F03460C464FF0FF39DF
:10A530000AB1002000E0082084460AB1082000E0AB
:10A540000C208046614624E0154850F82100401C4C
:10A55000F0B91D460846274616464FFA80FBDFF83D
:10A5600040A00AF1300A0AF805B0DFF834A04AF832
:10A5700020704EB94FFA85FBA0F1080ADFF820E001
:10A580000EF1600E0EF80AB000BF4FFA81F902E03A
:10A59000491C4145D8D300BF4846BDE8F08F0000B4
:10A5A000B41001200146014840567047E4100120D4
:10A5B00070B590B006460C461546A07818B9012033
:10A5C0008DF80E0002E0A0788DF80E002088ADF81E
:10A5D0000C0000200290607C02A90AF0B1FEA07C71
:10A5E0000DF109010AF0ACFEE07B08B1012000E0AA
:10A5F00000209DF80A1060F3C3018DF80A10207C3A
:10A6000008B1012000E000209DF80A1060F3041159
:10A610008DF80A10207B08B1012000E000209DF891
:10A620000A1060F300018DF80A10207D08B10220A5
:10A6300000E001209DF80A1060F342018DF80A1035
:10A640001C2109A8FCF73DFF607BC0F3001018B97E
:10A65000607BC0F34010F8B100200090E07C0DF169
:10A6600001010AF06DFE00BF9DF8000020F00F0010
:10A67000401C8DF800009DF8000020F0F000103024
:10A680008DF8000000BF9DF8020020F00600801C3D
:10A690008DF80200CDF838D0607B8DF82400A07BC7
:10A6A0008DF82500142104A8FCF70BFF03A80490E3
:10A6B00002A80590A088ADF81C00A06820B1E08831
:10A6C000ADF81800A0680890A069002849D00020C3
:10A6D0000190A0690088ADF82C00A0694088ADF811
:10A6E0002E00A06940680A9001A80D90A169087B1E
:10A6F00001A90AF025FEA169487B0DF105010AF0C8
:10A700001FFEA069807A08B1012000E000209DF8BA
:10A71000061060F3C3018DF80610A069C07A08B175
:10A72000012000E000209DF8061060F304118DF870
:10A730000610A069007A08B1012000E000209DF811
:10A74000061060F300018DF80610A069807B08B147
:10A75000022000E001209DF8061060F342018DF810
:10A760000610E06908B1E0690C902B4604AA09A91B
:10A770003046AADF10B070BD2DE9F04104460D4609
:10A780004FF6FF76304684420AD14FF48071284656
:10A7900003F087FB86B2B6F5807F10D126460EE027
:10A7A000FF2C0CDC2146284603F064FB80F00107F7
:10A7B0000FB1204601E04FF6FF70064600BF30465D
:10A7C000BDE8F08170B505460DB9094C01E0084CB3
:10A7D000083409E0204602F0E6FC064606B904E02B
:10A7E00028467168884700BFF4E700BF70BD0000CD
:10A7F000A810012010B504462CB901200649487064
:10A800000020FFF7DFFF012C04D1012002498870EE
:10A81000FFF7D8FF10BD0000A01001202DE9F04780
:10A82000024613468C46D3E90245DCE90267B6EBE3
:10A83000040877EB050002D30120BDE8F087002073
:10A84000FBE701468878012805D191F8200001280E
:10A8500001D1002070470120FCE733B58BB00546DD
:10A86000002000900C9878B100240BE021460CA841
:10A8700003F047FB28B1009A501C009001A820F873
:10A880001240641C142CF1D32C2269462846FCF794
:10A89000FFFD0DB030BD01460888062808DB08889A
:10A8A000B0F5486F06DD08884FF6FF72904201D080
:10A8B000072070474888062808DB4888B0F5486FAD
:10A8C00006DD48884FF6FF72904201D00720F0E77E
:10A8D00008884FF6FF72904208D04888904205D011
:10A8E00008884A88904201DD0720E2E70020E0E77F
:10A8F0002DE9F04107460D46144698462088801DF4
:10A90000404502D90C20BDE8F0813846FFF7C3FF6F
:10A91000064600BF304600B1F5E700BF052021889C
:10A9200068542088401C2080122021886854208888
:10A93000401C20802288511938880BF0C3FC2188E4
:10A94000084420802288511978880BF0BBFC2188AC
:10A95000084420800020D6E710B5044600BF2046FA
:10A96000FDF71AFF00BF10BD30B587B01C21684647
:10A97000FCF7A7FD002000904FF4A03001904FF4A9
:10A98000F020029003208DF80C000020ADF80E009E
:10A990008DF8100009480590094806906846FEF7B2
:10A9A000F1FC044600BF254625B100BF2846FDF74F
:10A9B000F3FE00BF00BF07B030BD0000DD11030093
:10A9C00059A90200F8B505460C46607A88B9207A84
:10A9D00010B91048476801E00E4887682A46394692
:10A9E0006068FDF76BFF064616B130460AF090F935
:10A9F0000EE0002020720748406948B101208DF820
:10AA00000000ADF80250034841696846884700BF1E
:10AA1000F8BD0000240D0120F0B585B004460D46B8
:10AA200017461E4614220B496846FCF731FDADF867
:10AA300002408DF80850ADF80A708DF80C600022C5
:10AA4000054801782046FEF77FFD684600F048FD86
:10AA500005B0F0BDCC6E0300CD01012010B586B06D
:10AA60000446208807F026F800BB2088FEF7D8FCB3
:10AA700030B92088012241F2060100F02AFB15E0DE
:10AA8000208800220A490978FEF75EFD03208DF830
:10AA900004002088ADF8060000208DF80C0000218D
:10AAA0008DF80D1001A800F01BFD00BF06B010BD11
:10AAB000CD01012070B504460D4629462046FDF71C
:10AAC00059F970BD10B5012200210846FFF78EF933
:10AAD000044600BF1CB1072C01D0204610BD00BFAA
:10AAE000072202210120FFF781F9044600BF1CB1B3
:10AAF000072C01D02046F1E700BF042202210020EC
:10AB0000FFF774F9044600BF1CB1072C01D02046A2
:10AB1000E4E700BF0020E1E72DE9FF4105460C46D0
:10AB2000002002900390ADF80840ADF80A40009074
:10AB300001906A4602A9284690DF0646002E32D0D0
:10AB4000304605F0C9FA074619491A4A891AC90850
:10AB5000012242EA01403B462A46174904F0D2FC52
:10AB6000BDF8000010B9BDF8020068B1BDF80230B0
:10AB7000BDF800200E490F4FC91BC908012747EA3D
:10AB800001400EA104F0BEFCBDF8040058B1BDF8B0
:10AB900004200749074BC91AC908012343EA0140A9
:10ABA000164904F0A3FC304604B0BDE8F081000073
:10ABB000D88C0300C08C0300B47603005468652071
:10ABC0007265717565737465642054582F525820EE
:10ABD0007061636B6574206C656E6774682069735F
:10ABE00020746F6F206C6F6E672062792025752F3F
:10ABF0002575206F63746574732E00000077030061
:10AC00002DE9F04105460F460F4C0121204603F087
:10AC1000E2F9064600BF00BF00BF00BFBFF35F8F71
:10AC200000BF00BF00BF0EB9012000E0002040B10E
:10AC3000284602F0B5FC08B1BDE8F081024804F0F6
:10AC400053FE00BFF8E70000D800012070B50B49A3
:10AC50000B4A891AC908032242EA014009A104F0FB
:10AC60003BFC08F09BFC044600BF254625B100BF15
:10AC70002846FDF791FD00BF00BF70BD808D030029
:10AC8000C08C0300457261736520626F6E6473212E
:10AC90000000000070B506460D4616B14FF40640A0
:10ACA00070BD287920B1012809D0022815D111E002
:10ACB00002202871284609F041F8044610E0284691
:10ACC00000F0A0FE044648F20960844201D141F63A
:10ACD0001D5405E041F61D5402E048F20E6400BF29
:10ACE00000BF2046DCE700002DE9F041804600244B
:10ACF00014E01248006800EBC405287805F0B8FBA2
:10AD000007466878012800D100E00020784080F0F4
:10AD100001062878314600F011FB641C08480078D1
:10AD20008442E6DB0748D0E9001000235940584030
:10AD3000014301D00AF0F6FFBDE8F08118020120BE
:10AD40001C0201204802012070B504460D46002077
:10AD5000064981F8860006480068FDF7DEFD09F027
:10AD60005DFC00200349087070BD0000E40701206D
:10AD7000A46C03002D00012070B5044620793D2805
:10AD800002D141F23D0001E04FF488500546208891
:10AD90000022294602F04EFB70BD000010B50021D4
:10ADA000034803F018F9044684F3100010BD0000B6
:10ADB000D819012070B505460C464FF4803000FAD2
:10ADC00004F1284600F09AFA70BD70B505460C46AD
:10ADD0004FF4A07000EB840086B23146284600F0A4
:10ADE00025FB70BD2DE9F04704460D4616461F466B
:10ADF0004FF4803000FA05F84FF4A07000EB8500A6
:10AE00001FFA80F926F07F464146206804F000FED4
:10AE10004146206804F0F6FD4946206804F0EBFD49
:10AE200032462946206804F0DDFD4146206804F0E2
:10AE3000ECFD1FB14146206804F0EDFDBDE8F08750
:10AE400010B50446206804F0D2FD10BD2DE9F0478E
:10AE500004460D4617466079324941F82070607902
:10AE6000314901EBC000007968B108262F49304A0A
:10AE7000891AC908022242EA01402EA104F02CFBE3
:10AE80003046BDE8F08729882068C0F8081500BF63
:10AE900094F90420AB7810461946002808DB4FEAE5
:10AEA000417C4FEA1C68DFF8B0C00CF800800BE072
:10AEB0004FEA417C4FEA1C69DFF8A0C000F00F08A0
:10AEC000A8F104080CF8089000BF00BF94F9041022
:10AED000084600280DDB00BF00BF00F01F03012261
:10AEE0009A4043099B0003F1E023C3F8002100BF0F
:10AEF00000BF00BF00BF012061790B4A02EBC10116
:10AF000008716079114641F8304000260749084A27
:10AF1000891AC908032242EA014011A104F0DCFAAF
:10AF20003046AEE77402012078020120608D0300F4
:10AF3000C08C030052544320696E7374616E636564
:10AF400020616C726561647920696E697469616CF5
:10AF5000697A65642E00000000E400E018ED00E06E
:10AF60005254433A20696E697469616C697A656408
:10AF70002E00000010B5014691F90400002807DBFF
:10AF800000F01F0301229A40024B440943F8242099
:10AF900000BF10BD00E200E070B505460C46224639
:10AFA0000221284600F0B6F970BD10B504464FF4F2
:10AFB0008271204600F03AFA10BD10B50446002117
:10AFC000206804F02BFD10BD10B504460421206854
:10AFD00004F024FD10BD2DE9F84F044688461546BF
:10AFE00099464FF4803000FA08FA4FF4A07000EB55
:10AFF00088001FFA80FB25F07F455146204600F06F
:10B000007DF9206804F0F3FC06464146206804F010
:10B01000E3FC009032464146206804F0E3FC5946C8
:10B02000206804F0E8FC314600980AF09DFD0128F4
:10B0300006D1102005F02AF95946206804F0DBFCFF
:10B04000206804F0D4FC0646314628460AF08CFD00
:10B0500007465146206804F0D8FC012F0FD16A1C26
:10B060004146206804F0BEFC102005F00FF920686E
:10B0700004F0BDFCB04225D00D20BDE8F88F2A4673
:10B080004146206804F0AEFC206804F0B0FC06469F
:10B09000681E31460AF068FD07466FF07F40A0EB5E
:10B0A0000900B84201D20D20E7E75FB96A1C4146AA
:10B0B000206804F097FC206804F099FCB04201D0AD
:10B0C0000D20DAE701225146204600F023F9002046
:10B0D000D3E770B506460C4615462B46224600219E
:10B0E0003046FFF799FC70BD2DE9F84305460E4642
:10B0F0001746984669461048006802F074FE0446F8
:10B1000014B90420BDE8F8831C212046FCF7D9F9C6
:10B11000012020712560C4F8088008480068B6FB4B
:10B12000F0F0E060676169460348006802F085FE60
:10B1300008F0EEFC0020E5E76C700300607003008F
:10B1400010B50446D4E90321501828DF10BD027859
:10B15000072A38D2DFE802F037040712222B340026
:10B1600000220A7030E001220A7003898B818388F3
:10B17000CB81C2688A6000230B7425E002220A702A
:10B1800003898B818388CB81C2688A60827D062A8D
:10B1900001D1012300E000230B7415E003220A70A3
:10B1A000C3888B810389CB81C2688A600CE004224A
:10B1B0000A70C3888B810023CB8100228A6003E060
:10B1C00005220A7000E000BF00BF704770B5054659
:10B1D000002409E0064850F8240020B1044850F843
:10B1E000241028468847641C042CF3D370BD00004B
:10B1F0005812012030B587B004460D46206880689B
:10B2000008B907B030BD182101A8FCF75AF902951A
:10B21000A0680690207910B1012815D109E001201D
:10B220008DF8040020690390E0680490606905903F
:10B230000BE002208DF804000749E06809684843E4
:10B2400003906069059000E000BF00BF206881683E
:10B2500001A8884700BFD4E760700300F0B585B04F
:10B2600005460C461646002C3ED0112C3CD0082C2E
:10B270003AD00D2C24D11D491D4A891AC908022231
:10B2800042EA01402A461B4904F030F92A460421CB
:10B29000684602F045FC2EB1307800F0010008B19C
:10B2A000012000E002208DF8080000218DF80C102C
:10B2B00041F20111ADF80A10684600F025F913E0DB
:10B2C000204604F009FF07460849094A891AC908B7
:10B2D000012242EA01402B463A46074904F012F99E
:10B2E0002146284609F082FD05B0F0BD088D030017
:10B2F000C08C0300308303004084030070B5044613
:10B300000D462946206804F07DFB2946206804F09C
:10B310007FFB70BD70B504460E4615463146206869
:10B3200004F073FB1DB13146206804F074FB70BD5E
:10B3300010B50446204600F0E7F810BDF8B5054604
:10B340000C4628460AF0FAFA05286AD2DFE800F02F
:10B3500003212A393F00DCB1012128460AF0FEFA18
:10B36000002000906846FDF79FFB2A460126002733
:10B3700030463946FCF769F82B4AD2E900321843C7
:10B380001143294A03C29DF80000FDF793FB00BF5B
:10B3900047E00CB1022000E00020014628460AF0F8
:10B3A000DDFA3EE044B1032128460AF0D7FA012134
:10B3B00028460BF07FF803E0012128460AF0CEFA78
:10B3C0002FE01CB9042128460AF0C8FA29E024B16C
:10B3D000032128460AF0C2FA22E0002128460AF09A
:10B3E000BDFA002128460BF065F800200090684661
:10B3F000FDF75AFB2A460126002730463946FCF75E
:10B4000024F80A46C143D043074B0CCB11401840E7
:10B41000054AC2E900109DF80000FDF74BFB00BF94
:10B4200000BF00BFF8BD00004802012070B505460E
:10B430000C462868015929B12146286804F0DBFA36
:10B44000012070BD0020FCE770B50446608801F063
:10B4500073FBA080002505E0044850F82510204625
:10B4600088476D1C002DF7D070BD0000D000012072
:10B4700070B50446A08801F08FFA6080002505E0D1
:10B48000044850F82510204688476D1C002DF7D041
:10B4900070BD0000E400012070B50546002405E001
:10B4A000044850F8241028468847641C022CF7D31F
:10B4B00070BD0000E46D030070B50546002405E092
:10B4C000054850F8241028468847641C0348007833
:10B4D0008442F5DB70BD00005410012012010120F0
:10B4E00070B50446608801F027FBA080002505E0C8
:10B4F000044850F82510204688476D1C002DF7D0D1
:10B5000070BD00008C6E030070B50546002405E098
:10B51000044850F8241028468847641C002CF7D0B3
:10B5200070BD0000046F030010B586B004461421FE
:10B5300001A8FBF7C6FFA08900F07EFAADF808006D
:10B54000207806285ED2DFE800F05D0304052E4A6D
:10B5500000BF00BFA08900F074FA18B9E08908F0B4
:10B560000EFDF8B1E08908F007FD8DF80C00207899
:10B57000032801D1012100E000218DF80D10A16800
:10B580000491606830B909208DF8040001218DF81C
:10B59000141004E00A208DF804006168059101A8E8
:10B5A00006F09CFC2FE0A08900F04BFAB0B1E089D6
:10B5B000A0B9606838B90B208DF80400BDF8080008
:10B5C00006F0DCFE04E00C208DF8040060680390B7
:10B5D00001201149087001A806F080FC13E06068A2
:10B5E00018B914208DF8040004E015208DF804002B
:10B5F000606803904FF6FF70ADF8080001A806F0F0
:10B600006DFC00E000BF00BF0348007808B106F001
:10B61000FBFD06B010BD0000F100012038B5054665
:10B620001048007810B948F2016038BD4FF6FF703D
:10B63000854202D148F20360F7E7684608F048F90E
:10B64000044614B948F20760EFE705202070012096
:10B650002071E580684608F04BF908F04DFA0020AB
:10B66000E3E700008002012038B50E48007810B9E9
:10B6700048F2016038BD684608F02AF9044614B95A
:10B6800048F20760F6E706202070684608F030F9B7
:10B690000548007810B101200349087308F02CFA1E
:10B6A0000020E7E7800201202C13012070B586B04E
:10B6B000142101A8FBF705FF3048007828B101A844
:10B6C000FFF784FD002006B070BD2C48001D02F07D
:10B6D00044FC08B10020F6E700F062FA06460EB11D
:10B6E0003046F0E708F030F906F02CF9054625B1B0
:10B6F000022D03D0062D12D107E000BF00201F4904
:10B700000870486048F20A60DDE701201B490870B4
:10B710000020486001A8FFF759FD0020D3E700BFD3
:10B7200000BF684608F0D4F8044614B948F2076030
:10B73000C9E7012020700C2D16D2DFE805F01506B0
:10B74000150715111512150A0E0B00BF00202071E8
:10B750000BE000BF0320207107E00220207104E00D
:10B7600000BF0120207100E000BF00BF684608F064
:10B77000BFF808F0C1F90020A5E700008002012011
:10B7800038B5044614B948F2046038BD694620460D
:10B7900008F0F2FA08B3BDF8000000EB8000114990
:10B7A00001EB8000C068A8B1A07A98B1BDF8000094
:10B7B00000EB800001EB8000C068401EBDF8001067
:10B7C00001EB8101074A02EB8101C8600020A072F1
:10B7D000002504E048F2056501E048F209652846C5
:10B7E000D3E70000041301207FB514461D462B4605
:10B7F000224601A9684608F057FA04B070BD37B573
:10B800000C4615462B4622466946002008F04CFAA5
:10B810003EBD37B50C4615462B46224600216846EC
:10B8200008F042FA3EBD024602B111B948F2046086
:10B830007047106808600020FAE70000F8B5044679
:10B840000D4604B115B948F20460F8BD69462046BA
:10B8500008F092FAA0B16668BDF8001001EB810112
:10B86000094A02EB810101F10C00012102F07CFB8D
:10B870002E6060680C3068600120A0720020E4E750
:10B8800048F20960E1E700000413012070B50446A6
:10B890000D4614B948F2046070BD03230022294606
:10B8A00020460BF0ABF8F7E770B504460D460223CF
:10B8B0000022294620460BF0A1F870BD70B5054660
:10B8C00009480068042802D148F20B6409E00748DF
:10B8D0000549096840F821500121034802F044FB62
:10B8E0000024204670BD00008C0201205812012067
:10B8F0002DE9F84304464FF4806800262B48007871
:10B9000018B948F20160BDE8F88314B948F2046040
:10B91000F9E712212046FBF7D4FD03202080002503
:10B920003FE005EB8500224901EB8000008905EB33
:10B9300085011F4A02EB81014989084487B205EB62
:10B94000850102EB8101486805F078FF032802D1E8
:10B950002088401E2080608805EB8501144A02EB98
:10B960008101C96808446080208905EB850102EBEC
:10B970008101498908442081608938446081C7F584
:10B98000806086B2A089B04200DAA68104F110007E
:10B99000831EA21D211D0090284608F043FB681C51
:10B9A00085B2022DBDDB0020ADE700008002012042
:10B9B0000413012070B504460D462A460021204696
:10B9C00000F00EF8A068401CA06070BD01468A68B7
:10B9D000C868801A704701468A68C868801A70472C
:10B9E00010B583680B44848823400468E35C1370BB
:10B9F00010BDC26883881A4003689954C268521CFB
:10BA0000C26070473EB504460A4B6A460021A01D3D
:10BA100008F04AF9054635B9064A9188019808F0B8
:10BA200025FA054603E003480021016041602846ED
:10BA30003EBD00009C0201200146A1F5404080B2BD
:10BA400070470146B1F5404F05DB4FF6FE7081426D
:10BA500001DC012070470020FCE710B50446207887
:10BA6000182802D1FDF74CFD207010BD10B504461A
:10BA70002078182802D1FDF743FD207010BD70B565
:10BA800005460E46144624B13146284602F048FACF
:10BA900003E03146284602F0DEF970BD30B50446B9
:10BAA0001088C01C984201D90C2030BD0220158896
:10BAB00048551088401C1080012015884855108872
:10BAC000401C108015884C551088401C10800020A8
:10BAD000EBE770B504460D4640F21442115B0122BB
:10BAE000D4F81004FDF788FA064606B1357004F163
:10BAF0003C0204F5826104F1540072DF70BD000065
:10BB00002DE9F04106460C4615460027112C01D1BF
:10BB1000012700E0002765B13A460A48017830461F
:10BB2000FDF712FD0022084801783046FDF70CFDB4
:10BB300005E03A46044801783046FDF705FDBDE8CA
:10BB4000F0810000EB010120E801012010B54FF465
:10BB5000405400F009F80349086108460069001BD9
:10BB6000C86010BD5003012010B540F6F8700068A1
:10BB7000401C18B94FF01020406902E040F6F87000
:10BB8000006803464FF0805001694269581C08B1B3
:10BB9000184601E002FB01F00446204610BD0000FB
:10BBA00010B5FFF7D3FF00220249034802F078FEE8
:10BBB00010BD00007070030050030120F7B50D4662
:10BBC00017460DB90020FEBD0026009868B100247C
:10BBD00009E02146684602F094F918B1A0B239464E
:10BBE000A847761C641C142CF3D33046EBE770B5E1
:10BBF00004460D46E0B2FCF721FF204670BD10B5AB
:10BC00000446606807F0CEFE10BD00003EB500BFE0
:10BC10009DF8000020F00F00401C00909DF80000EF
:10BC200020F0F0001030009000BF0B2215A16846F4
:10BC30007CDF044600BF254625B100BF2846FCF73F
:10BC4000ABFD00BF00BFC12078DF0446002001909B
:10BC500002901020ADF80400ADF806000020ADF809
:10BC600008004FF4C870ADF80A0001A87ADF044656
:10BC700000BF254625B100BF2846FCF78DFD00BF5B
:10BC800000BF3EBD4D7920424C4520546573740081
:10BC900070B50021064802F037FA044600BF254679
:10BCA00025B100BF2846FCF777FD00BF00BF70BD7F
:10BCB0009003012070B5054615B14FF4064070BDE4
:10BCC0001848007B18B100201649087301E000F005
:10BCD000DFF81448007808281DD2DFE800F01C04C3
:10BCE000080C101C141800F03FF8044616E000F091
:10BCF000BDF8044612E000F099F804460EE000F0AA
:10BD000047F804460AE000F035F9044606E000F082
:10BD100043F9044602E048F20E6400BF00BF20462B
:10BD2000CDE700002C1301200D480089401C0C4970
:10BD3000088100204880087300BF0DE000EB8001FF
:10BD4000084A12F8211009B9012200E00022044932
:10BD50000A310A54411C88B20228EFDB7047000008
:10BD60002C1301200413012010B5084800F036F808
:10BD700040B900200549891E08704880486041F696
:10BD80001D5010BD00F072F8FBE700002E130120DB
:10BD900070B50F48458805EB85000E4901EB800022
:10BDA000C06878B904200A49087005EB8500094A83
:10BDB00002EB8000002301224168074802F0B8FC32
:10BDC000044602E000F090F80446204670BD0000F2
:10BDD0002C130120041301205003012010B501464B
:10BDE0000022002018E00F4B1B5C9BB100240D4B80
:10BDF0001C5400EB80030C4C04EB8303DB684BB951
:10BE000000EB800304EB83031B7C012B02D1088031
:10BE1000012203E0431C98B20228E4DB00BF104675
:10BE200010BD00003613012004130120F8B50C48A2
:10BE300044680C4800680B49898800EB81056088DC
:10BE4000C01C86B20320064908700020B300009091
:10BE5000084629464268044802F0E2FDF8BD0000A9
:10BE60002C130120940201205003012010B5074932
:10BE70004888091D07F0BEFF18B1FFF7D7FF044639
:10BE800002E0FFF785FF0446204610BD2C13012079
:10BE900010B514480078082820D2DFE800F0041F0D
:10BEA0001F0A1016171BFFF73FFF01200D490870EE
:10BEB00015E000F07DF802200A4908700FE000F05C
:10BEC00029F806200749087009E000BF0720054946
:10BED000087004E001200349087000E000BF00BFC3
:10BEE00010BD00002C13012010B505200649087074
:10BEF0000220064988800846002301220168044880
:10BF000002F016FC10BD00002C1301209402012049
:10BF100050030120144908681449498801EB810144
:10BF2000134A02EB810149680F4A11600F494988A1
:10BF300001EB81010E4A02EB810148600A498988C0
:10BF40000A4A528802EB8202094B03EB82021181FA
:10BF50000221054A91800021044A528802EB8202A4
:10BF600003EB820211747047940201202C1301200C
:10BF70000413012010B5062005490870498801EB1B
:10BF80008101044A02EB8101486805F0B9FC10BD4B
:10BF90002C1301200413012010B507200349087059
:10BFA0000020486005F0BCFC10BD00002C130120EF
:10BFB000054A50684288D21C91B2044A92880A44C9
:10BFC000024B9A80704700002C130120940201203C
:10BFD0002DE9F04186B00446A688208850282ED04E
:10BFE00004DC352836D0362808D189E0522802D022
:10BFF0005428F9D103E0304601F064FAB9E0142284
:10C00000634901A8FBF744FAADF80660304600F03A
:10C0100093FDADF80800BDF8080000F03BFA0022DF
:10C020005C4801783046FDF78FFA00225A480178C3
:10C030003046FDF789FA01A8FFF706FA99E0A01D3E
:10C04000FEF748FA28B10121304601F09DFA0AF0C6
:10C05000ADF98EE00027A68804F10A054F48017863
:10C060003046FDF75BFA00B983E000224B480178C7
:10C070003046FDF769FAE088B0F5857F3AD0E08870
:10C0800058B1E2884649474BC91AC908022343EA16
:10C09000014045A103F02AFA2CE0288801280AD0A3
:10C0A0002A883F493F4BC91AC908022343EA014085
:10C0B0004CA103F01BFA688801280BD06A88384924
:10C0C000384BC91AC908022343EA014054A103F0BE
:10C0D0000DFA0FE0A98800223046A1DF8046B8F1B2
:10C0E000000F06D1012701225C4801783046FDF798
:10C0F0002BFA00BF1FB90021304609F0BFFC38E021
:10C100000027A68804F10A05544801783046FDF757
:10C1100005FA00B92DE00022504801783046FDF7BD
:10C1200013FAE08858B1E2881D491E4BC91AC908A4
:10C13000022343EA01401CA103F0D8F914E0A888C7
:10C1400001280BD0AA881649164BC91AC908022320
:10C1500043EA014032A103F0C9F905E0A87908B12A
:10C16000012000E0002007463946304609F086FCF1
:10C1700000BF00BF00BF002239493A480078FDF7F0
:10C180005FF900BF08F0E0FE06B0BDE8F0810000F6
:10C19000B86D0300DF000120DE000120E100012076
:10C1A000C08C0300C08C0300556E657870656374A5
:10C1B000656420474154542073746174757320770B
:10C1C00068696C652067657474696E6720434152C5
:10C1D00020636861722076616C75653A203078253D
:10C1E000780000004D756C7469706C6520282564BA
:10C1F00029204341522063686172616374657269EA
:10C20000737469637320666F756E642C207573692F
:10C210006E67207468652066697273742E00000072
:10C22000556E657870656374656420434152206380
:10C2300068617261637465726973746963207661A1
:10C240006C7565206C656E67746820282564292CE0
:10C250002073746F726520302E000000E200012010
:10C26000478C0200DD00012010B50446207858B943
:10C27000608801F027F9608808F056FE6088FEF7B4
:10C28000F3F80AF093F800E000BF00BF10BD000013
:10C2900010B500F0ADFDFDF733F92A490870FDF740
:10C2A0002FF929490870FDF72BF928490870FDF787
:10C2B00027F927490870FDF723F926490870FDF78B
:10C2C0001FF925490870FDF71BF9244908701D481E
:10C2D0000078182817D01C480078182813D01B485D
:10C2E000007818280FD01A48007818280BD0194861
:10C2F0000078182807D018480078182803D0084676
:10C30000007818280BD11649164A891AC908012243
:10C3100042EA0140144903F0DFF8032010BD00BFDA
:10C3200000201249086000BF00BF00BF00BFBFF37C
:10C330005F8F00BF00BF00BF00BF01200C49087025
:10C340000020EBE7DC000120DD000120DE00012001
:10C35000DF000120E0000120E1000120E2000120D7
:10C36000C08C0300C08C030074730300D80001204C
:10C37000D40001207CB504462078092840D1607A99
:10C3800000283DD1207A012814D0072802D008289F
:10C3900034D12BE0A08800F0FFFA05464FF6FF707D
:10C3A000854206D00121284601F0EEF82846FEF726
:10C3B0005BF824E0A0886A46012105F083FC06466C
:10C3C0009EB90198007880B1A08800F0E5FA054692
:10C3D0004FF6FF70854207D001220B4801782846AE
:10C3E000FDF7B2F808F0B0FD00BF08E007480068AC
:10C3F000012802D1054803F077FA00E000BF00BF32
:10C4000009F0D4FF7CBD0000DE000120D80001202F
:10C4100070B50B48FEF714FD0A4B0CCB841843F1A2
:10C420000005094903C9201A75EB010004D24FF039
:10C430008073E41845F100052046294670BD0000D0
:10C440005002012060020120680201202DE9F04124
:10C4500004468846E0B2FDF7BFFF0546287804F0A1
:10C4600007F807466878012800D100E000207840EE
:10C4700080F001064EB10648D0E900100023594073
:10C480005840014301D109F04DFCBDE8F0810000A6
:10C49000480201201CB50446044903C9CDE9000146
:10C4A00000226946204605F01BFE1CBDDC6D030022
:10C4B00010B500F0A3FC012001490870002010BD58
:10C4C000E80001202DE9FC470546284600F034FB32
:10C4D00006460027B8464FF003094FF0010A4FF611
:10C4E000FF7086420DD06A460821304605F0EAFB0F
:10C4F000044634B90198871DB0F80480D0F8009044
:10C5000000BF00BF4B46424639462846B1DF0446CD
:10C51000042C01D1112422E0082C01D100241EE0BA
:10C520000B2C1CD14FF0000A09F0020010B14FF0A3
:10C53000010914E017B9B8F1000F04D00027B8467C
:10C540004FF003090BE00A490A4A891AC908012277
:10C5500042EA01402A46084902F0C8FF03240B2C96
:10C56000D0D0BAF1000F00D10B242046BDE8FC87E3
:10C57000C88C0300C08C03003C7603002DE9FF5FEC
:10C580008046404600F0D8FA06464FF6FF708642D5
:10C5900004D143F2020004B0BDE8F09F4FF001095E
:10C5A0004FF0000A00BF4FF0000A4A46511C1FFA24
:10C5B00081F902AB0821304605F0E6FB0446002C69
:10C5C00077D1039D032028602A1DA91D40462B68B2
:10C5D000B2DF0446002C4AD16A460821304605F0F5
:10C5E00071FB04469CB1052C11D0204603F074FD6C
:10C5F00007463549354A891AC908012242EA0140ED
:10C6000043463A4632A102F07DFF0320C3E7052CE2
:10C610000BD0A88801998988884206D1AA880198F8
:10C62000811DA81DFAF75FFF30B132460821304660
:10C6300005F032FC044619E00821304605F01CFCE8
:10C6400007460FB90B2410E0384603F045FD83463A
:10C650001D491E4A891AC908012242EA01405B4667
:10C660003246294902F04EFF032400BF1FE00C2C84
:10C6700002D14FF0010A02E0052C00D1002408216C
:10C68000304605F0F9FB074687B1384603F024FD34
:10C6900083460D490D4A891AC908012242EA014020
:10C6A0005B463246184902F02DFF032400BF03E029
:10C6B000FFE7072C00D10C24BAF1000F7FF473AF11
:10C6C00000BF204667E70000C88C0300C08C030051
:10C6D0007064625F706565725F646174615F7074DD
:10C6E000725F67657428292072657475726E65645F
:10C6F00020257320666F7220636F6E6E5F68616EB7
:10C70000646C653A20256400BC75030010B50446CE
:10C71000044800884FF6FF71884201D008F020FCE1
:10C7200010BD0000EA000120FEB5044602A80190F9
:10C73000204600F001FA06466A460121304605F01F
:10C74000C1FA05460DB10020FEBD01980078FBE757
:10C750002DE9F04105464FF6FF761648B3DF044653
:10C760008CB1204603F0B8FC07461349134A891AD6
:10C77000C908012242EA01403A46114902F0B6FED8
:10C780000320BDE8F08100BF4FF6FF720948018821
:10C790002846AFDF044643F20300844204D1054833
:10C7A0000088401C0349088043F203008442EBD018
:10C7B0002046E6E7EC000120C88C0300C08C030093
:10C7C0007075030070B504460D46204600F01DF854
:10C7D000A84201D9022070BDA0884FF6FF7188429F
:10C7E00004D0208810B1A068401C08B90120F2E7ED
:10C7F0000020F0E7024613468B4204D21868401C22
:10C8000008B1012070470020FCE701464A8801F189
:10C810000C0000EB8200704710B502F0CFFC08B9A5
:10C8200003F08EF810BD3EB504460D462078022177
:10C83000B1EB500F01D000203EBDB4F80100ADF8BF
:10C840000800E0788DF80A00A188ADF80010A07902
:10C850008DF8020001AA69462846FBF793FE0322E1
:10C8600001A902A8FAF73FFE08B90120E4E7002079
:10C87000E2E7000070B504460D46142C03DA2046AA
:10C88000FCF778FE10B943F2020070BD04EB84009F
:10C89000054901EB4000D0F802102960C188A98049
:10C8A000007AA8710020F0E7BC0D012030B591B0EE
:10C8B00005462888102801D011B030BD2C22291D32
:10C8C00006A8FAF7E5FD4FF6FF749DF81C0003215A
:10C8D000B1EB500F35D005F0ADFB9DF81C004008C2
:10C8E00020B1012803D0022828D114E000BF09E0BC
:10C8F000049800F1110107A8FBF72FFD10B1BDF856
:10C90000144006E003AA05A9072005F05DFB0028F6
:10C91000EED100BF13E008E00498411C07A8FFF720
:10C9200082FF10B1BDF8144006E003AA05A9072054
:10C9300005F04AFB0028EFD100BF00E000BF00BFB8
:10C9400000BFBDF8180000EB8000124921F810402C
:10C95000BDF8180000EB800001EB40000799C0F81B
:10C960000210BDF82010C1809DF8221001724FF610
:10C97000FF7084420CD0BDF81800ADF80600ADF889
:10C98000084000208DF8040001A8FEF785FD00BFD7
:10C9900000BF91E7BC0D012070B505464FF6FF7052
:10C9A000854200D170BD00240EE004EB84000949EB
:10C9B00031F81000A84205D12046FCF7DBFD08B194
:10C9C0002046EFE7601C84B2142CEEDB4FF6FF70BC
:10C9D000E8E70000BC0D01203EB505460C4605F019
:10C9E00029FB0BE0BDF80800A04207D028460199BA
:10C9F00000F00EF810B1BDF808003EBD6A4602A96D
:10CA0000072005F0E1FA0028ECD14FF6FF70F4E7BB
:10CA10002DE9F04704460D4604F1110605F1110712
:10CA20001022691C601CFAF75EFD48B9601C00F01A
:10CA3000A6FB28B1681C00F0A2FB08B1012000E0B1
:10CA40000020824639463046FBF787FC8046307826
:10CA50000221B1EB500F10D030780321B1EB500F11
:10CA60000BD038780221B1EB500F06D03878032173
:10CA7000B1EB500F01D0012000E000208146B8F159
:10CA8000000F02D0B9F1000F05D1BAF1000F05D0A7
:10CA9000B9F1000F02D10120BDE8F0870020FBE7CB
:10CAA0000246108808B101207047002105E0901C63
:10CAB000405C08B10120F7E7491C0829F7D30020A2
:10CAC000F2E770B505460C462846FFF7E9FF08B9BE
:10CAD000002070BD28882188884201D00020F8E716
